:020000040000FA
:06000000FEEF0DF01200FE
:0A00060001003E1C0000000E000087
:0400100035000000B7
:0C001400000000000000065F060007036B
:10002000000703247E247E24242B6A120063130815
:10003000646336495620500007030000003E41002B
:100040000000413E0000083E1C3E0808083E08082B
:1000500000E0600000080808080800606000002058
:10006000100804023E5149453E00427F4000625163
:1000700049494622494949361814127F102F4949E7
:1000800049313C4A4949300171090503364949491A
:1000900036064949291E006C6C000000EC6C00001B
:1000A000081422410024242424240041221408029C
:1000B000015909063E415D551E7E1111117E7F4991
:1000C0004949363E414141227F4141413E7F4949B4
:1000D00049417F090909013E4149497A7F080808D9
:1000E0007F00417F4100304040403F7F0814224163
:1000F0007F404040407F0204027F7F0204087F3E31
:100100004141413E7F090909063E4151215E7F0977
:10011000091966264949493201017F01013F4040E2
:10012000403F1F2040201F3F403C403F63140814C5
:100130006307087008077149454300007F4141008B
:1001400002040810200041417F00040201020480E3
:1001500080808080000307000020545454787F443E
:100160004444383844444428384444447F38545440
:100170005408087E09090018A4A4A47C7F0404780C
:100180000000007D40004080847D007F10284400F6
:1001900000007F40007C041804787C040478003858
:1001A00044444438FC4444443838444444FC44788F
:1001B0004404080854545420043E4424003C402085
:1001C0007C001C2040201C3C6030603C6C10106C9B
:1001D000009CA0603C006454544C00083E41410027
:1001E00000007700000041413E08020102010006C4
:1001F00009090600000000000000000000000000E7
:1002000000000000000000000000000000000000EE
:100210007C00FF33FF337C00000000000000000082
:10022000000000003C003C00000000003C003C00DE
:100230000000000000000002101E901FF0037E026C
:100240001E1E901FF0037E021E00100000007804A6
:10025000FC0CCC0CFF3FFF3FCC0CCC0F8807000000
:10026000000000303838381C380E00078003C00109
:10027000E038703838381C000000001FB83FFC31EF
:10028000C621E2373E1E1C1C003600220000000082
:100290000000000027003F001F00000000000000D9
:1002A0000000000000000000F003FC0FFE1F0738F4
:1002B00001200120000000000000000000000120DB
:1002C00001200738FE1FFC0FF003000000000000B3
:1002D0000000980CB80EE003F80FF80FE003B80E1A
:1002E000980C000000000000800180018001F00FE8
:1002F000F00F80018001800100000000000000007C
:10030000000000B800F800780000000000000000C5
:1003100000000000800180018001800180018001D7
:100320008001800100000000000000000000003893
:100330000038003800000000000000000000001835
:10034000001C000E00078003C001E00070003800B0
:100350001C000E00F807FE1F061E03338331C33056
:10036000633033301E18FE1FF807000000000C3009
:100370000C300E30FF3FFF3F0030003000300000F7
:100380001C301E38073C033E03378333C331E33050
:1003900077303E301C300C0C0E1C0738C330C33095
:1003A000C330C330C330E7397E1F3C0EC003E003C7
:1003B000700338031C030E030703FF3FFF3F0003D6
:1003C00000033F0C7F1C633863306330633063305D
:1003D0006330E338C31F830FC00FF01FF839DC30E0
:1003E000CE30C730C330C330C339801F000F030085
:1003F000030003000330033C030FC303F3003F007B
:100400000F000300000FBC1FFE39E730C330C330BC
:10041000C330E730FE39BC1F000F3C007E00E730E0
:10042000C330C330C338C31CC30EE707FE03FC0050
:10043000000000000000701C701C701C0000000018
:10044000000000000000000000000000709C70FC34
:10045000707C000000000000000000000000C000F0
:10046000E001F00338071C0E0E1C073803300000B3
:100470000000000060066006600660066006600618
:1004800060066006600600000000033007380E1C9E
:100490001C0E3807F003E001C000000000001C0043
:1004A0001E00070003008337C337E30077003E00D8
:1004B0001C000000F80FFE1F0718F333FB371B3634
:1004C000FB37FB370736FE03F8010038003FE00733
:1004D000FC061F061F06FC06E007003F0038000070
:1004E000FF3FFF3FC330C330C330C330E730FE3976
:1004F000BC1F000F0000F003FC0F0E1C0738033078
:100500000330033007380E1C0C0C0000FF3FFF3F88
:10051000033003300330033007380E1CFC0FF003A8
:100520000000FF3FFF3FC330C330C330C330C33090
:10053000C330033003300000FF3FFF3FC300C30060
:10054000C300C300C300C300030003000000F003A6
:10055000FC0F0E1C07380330C330C330C330C73F15
:10056000C63F0000FF3FFF3FC000C000C000C0000A
:10057000C000C000FF3FFF3F00000000000003304C
:100580000330FF3FFF3F0330033000000000000056
:10059000000E001E003800300030003000300038FF
:1005A000FF1FFF070000FF3FFF3FC000E001F00317
:1005B00038071C0E0E1C073803300000FF3FFF3FBA
:1005C00000300030003000300030003000300030AB
:1005D0000000FF3FFF3F1E007800E001E0017800CF
:1005E0001E00FF3FFF3F0000FF3FFF3F0E003800AF
:1005F000F000C0030007001CFF3FFF3F0000F003B6
:10060000FC0F0E1C07380330033007380E1CFC0F9C
:10061000F0030000FF3FFF3F83018301830183015B
:100620008301C701FE007C000000F003FC0F0E1CDC
:10063000073803300336073E0E1CFC3FF033000042
:10064000FF3FFF3F8301830183038307830FC71DA0
:10065000FE387C3000003C0C7E1CE738C330C330D1
:10066000C330C330C7398E1F0C0F000000000300D9
:1006700003000300FF3FFF3F0300030003000000EF
:100680000000FF07FF1F003800300030003000304E
:100690000038FF1FFF07000007003F00F801C00FF0
:1006A000003E003EC00FF8013F0007000000FF3F82
:1006B000FF3F001C0006800380030006001CFF3F74
:1006C000FF3F000003300F3C1C0E3003E001E0014F
:1006D00030031C0E0F3C0330000003000F003C00F1
:1006E000F000C03FC03FF0003C000F0003000000DE
:1006F0000330033C033E0333C331E33033301F3058
:100700000F300330000000000000FF3FFF3F0330C8
:100710000330033003300000000000000E001C0016
:1007200038007000E000C00180030007000E001CCC
:100730000018000000000330033003300330FF3F97
:10074000FF3F0000000000006000700038001C0047
:100750000E0007000E001C0038007000600000C092
:1007600000C000C000C000C000C000C000C000C089
:1007700000C000C000000000000000003E007E003D
:100780004E000000000000000000001C403E6033EE
:1007900060336033603360336033E03FC03F00005C
:1007A000FF3FFF3FC0306030603060306030E03885
:1007B000C01F800F0000800FC01FE0386030603025
:1007C000603060306030C01880080000800FC01FAB
:1007D000E038603060306030E030C030FF3FFF3FD5
:1007E0000000800FC01FE03B603360336033603334
:1007F0006033C01380010000C000C000FC3FFE3F1A
:10080000C700C300C3000300000000000000800315
:10081000C0C7E0CE60CC60CC60CC60CC60E6E07F4E
:10082000E03F0000FF3FFF3FC0006000600060004D
:10083000E000C03F803F00000000000000000030EA
:100840006030EC3FEC3F0030003000000000000062
:1008500000000000006000E000C060C0ECFFEC7F22
:100860000000000000000000FF3FFF3F0003800782
:10087000C00FE01C603800300000000000000000E5
:1008800000300330FF3FFF3F003000300000000029
:100890000000E03FC03FE000E000C03FC03FE0009C
:1008A000E000C03F803F00000000E03FE03F60000C
:1008B000600060006000E000C03F803F0000800FEB
:1008C000C01FE0386030603060306030E038C01FFA
:1008D000800F0000E0FFE0FF600C601860186018F7
:1008E0006018E01CC00F800700008007C00FE01CEC
:1008F0006018601860186018600CE0FFE0FF0000EE
:100900000000E03FE03FC000600060006000600069
:10091000E000C0000000C011E0336033603360339A
:100920006033603F401E0000000000006000600077
:10093000FE1FFE3F6030603060300030000000007D
:100940000000E00FE01F00380030003000300030C1
:100950000018E03FE03F00006000E0018007001E5B
:1009600000380038001E8007E00160000000E0074A
:10097000E01F0038001CE00FE00F001C0038E01FF3
:10098000E00700006030E038C01D800F0007800FD6
:10099000C01DE03860300000000000006000E08111
:1009A00080E7007E001E8007E0016000000000007C
:1009B00060306038603C60366033E031E030603099
:1009C00020300000000000008000C001FC1F7E3FBE
:1009D0000770036003600360000000000000000077
:1009E00000000000BF3FBF3F00000000000000000B
:1009F0000000000003600360036007707E3FFC1F7F
:100A0000C001800000000000100018000C0004006D
:100A10000C001800100018000C000400000000007A
:100A200018003C00660066003C0018000000000052
:040A300000000000C2
:0C0A340090DB86E90150010600090CE08F
:100A400002EBE6FF03EBE6FF00EBE6FF69DBF4E118
:100A50000B1DF2E1010E01D0000E41E9E5CFDAFFF6
:100A6000E7CFD9FF120077DB89E97BE80A6A0B6AD6
:100A700002EBF6FF03EBF7FF04EBF8FF0800F5507D
:100A8000096E095001E12DD3250E095C01E01BD34D
:100A90000C6A0D6A0E6A0F6A106A2DDB2D0E095C56
:100AA0000CE02B0E095C09E0200E095C06E0230E29
:100AB000095C03E0300E095C15E10950300A10E0D2
:100AC000130A0CE0030A08E00B0A04E0060AE5E159
:100AD0000C80E3D70C82E1D70C84DFD70C86DDD7FE
:100AE0000C88DBD72A0E095C13E1A5DB0DE30C8033
:100AF0001CEB0AF01DEB0BF000010A6D0B1F000E42
:100B00000B230A510D6E02D09CEB0DF0F4DA07D0E6
:100B1000126A3FDB02E06BDBFCD792EB0DF00CB00E
:100B20000C982E0E095C15E1E6DA2A0E095C08E144
:100B300082DB04E29CEB0EF0010E0F6EDCDA09D0D2
:100B4000126A27DB02E053DBFCD792EB0EF0010EBA
:100B50000F6E680E095C07E1CEDA680E095C1DE1D4
:100B6000030E106E19D0740E095C16E07A0E095C43
:100B700013E0480E095C06E0540E095C03E05A0ECF
:100B8000095C02E1020E07D06C0E095C03E06A0EFC
:100B9000095C03E1010E106EAEDA09506E0A01E144
:100BA0006ED21E0A01E128D1200A01E125D13F0AB7
:100BB00001E1FDD01A0A01E1FAD00D0A01E1F7D0F6
:100BC000200A01E1F4D03A0A01E1F1D0200A01E162
:100BD000EED0260A01E1EAD00D0A01E1E7D01A0AB7
:100BE00001E19ED0200A3BE0300A1AE0460A0EE0FE
:100BF000250A01E072D2D950020FE96E000EDA2008
:100C0000EA6E010EEE5E000EEE5AEE5A0FDB250E76
:100C1000E66E86DA03E10B1D01E159D20A2A5BD2A6
:100C2000116A0D50010803E20D04116EF5DA11503E
:100C300007E0010E0C1404E16DDA01E048D2116AFC
:100C4000D3DAEF50096ECBDA03E10B1D01E13FD29D
:100C50000A2A000E0B225EDA01E13FD238D2020EE0
:100C6000105C08E1030E4EDAEE50176EEE50186E6F
:100C7000EF5007D0E7DA0C6B0A51176E0B51186E64
:100C80000C51196E17EBE6FF18EBE6FF19EBE6FFC8
:100C900056EC0DF043E911C00AF012C00BF013C07E
:100CA0000CF000010A511C6E0B511D6E0F5006E036
:100CB0001C500E5C03E20E501C6E1D6A1C500D5C35
:100CC00002E29CEB0DF050DA05E00D500E5C02E202
:100CD0008EEB0DF00CB004D01DDA01E0F8D1116AF2
:100CE000126A17EBF6FF18EBF7FF19EBF8FF080095
:100CF000F550096E095010E00D50125C0DE26FDAEC
:100D000003E10B1D01E1E3D10A2A000E0B22122A96
:100D1000D950170F55DAEBD7FDD901E1DED1D7D184
:100D200063DAEE501A6EED501B6E1AEBE6FF1BEB0A
:100D3000E6FF48EC0DF042E9F3501C6EF4501D6ED6
:100D40000F5006E01C500E5C03E20E501C6E1D6A34
:100D50001C500D5C02E29CEB0DF006DA05E00D5034
:100D60000E5C02E28EEB0DF00CB004D0D3D901E0A2
:100D7000AED1116A126A1AEBE9FF1BEBEAFFEF50E2
:100D8000096E09500FE00D50125C0CE228DA03E105
:100D90000B1D01E19CD10A2A000E0B22122A1A2AED
:100DA0001B22E9D7B7D901E198D191D10C8E10045B
:100DB0000AE1040EA7D9EE50136EEE50146EEE50F9
:100DC000156EEF5032D0030E105C16E10CAE0CD055
:100DD0000BDAEFCF0AF000010B6B0C6B0D6B0AAF57
:100DE00023D00B690C691FD0FFD9EFCF0AF00001A7
:100DF0000A51136E146A20D0020E105C0CE10CAE86
:100E000006D0030E7FD9B6D90CAF0ED00CD0030E8E
:100E100079D9B0D909D00CAE0AD014DA0C6B0D6BAD
:100E20000BAF02D00C690D69BCD9166E07D00ADA77
:100E30000A51136E0B51146E156A166A0F5002E1B7
:100E4000010E0E6E1E6A1F6AD950400FE66E000E2C
:100E5000DA20E66EE552E550436EE750426E416A95
:100E6000116A0A0E106E0950780A12E0200A10E08A
:100E7000280A0CE0200A0AE03F0A06E00D0A02E018
:100E8000200A08E1020E05D0080E03D0080E09263C
:100E9000100E106E0CBE02D00C920C94800E0C142E
:100EA00017E0163415E3E668E668E668E66842D9B6
:100EB000A7EC0BF0E552E5CF0DF0E5CF0CF0E5CF58
:100EC0000BF0E7CF0AF000016CD9166E2D0E07D09B
:100ED0000CA202D02B0E03D00CA404D0200E206E46
:100EE0001E2A01D0206A0E5005E11350141015106F
:100EF000161061E00001280E0A6F1C0E0B6F000E29
:100F00000C6F83D964EC0BF0E552E5CF10F0E5CF20
:100F10000FF0E5CF0EF0E7CF0DF000010A510D25DF
:100F2000F36E0B510E21F46E0C510F21F86EF4CFBD
:100F3000F7FFF3CFF6FF0800F550126E580E095C6C
:100F400005E1610E125C02E3200E125E5ED961ECD7
:100F50000BF0E552E550166EE550156EE550146E37
:100F6000E750136E42EBE9FF43EBEAFF4206000E47
:100F7000435A12EBEFFF1E2A1350141015101610CF
:100F8000B9E10CA619D06F0E095C06E10E501E5C8B
:100F900013E31E280E6E10D0780E095C09E0580E7F
:100FA000095C06E0620E095C03E0420E095C04E1A4
:100FB000020E1F6E01D01E6A100E0C1407E00D50B9
:100FC0000E5C04E20F5002E18DEB0EF00E501E5C41
:100FD00003E21E500E5E01D00E6A0E501E241F2426
:100FE000D8800D5407E20E500D5CD8801E54D88076
:100FF0001F54116E010E0C1406E1115004E08AD842
:1010000066E10AD9116A205007E010D920EBE6FF0B
:1010100087D802E10B1D5BE01F500BE007D9300EB3
:10102000E66E7ED802E10B1D52E0D9D802E10B1D1D
:101030004EE00E501F5C02E21F500E5E300EE66E58
:101040000EEBE6FFDCD843E1422A000E432242EBDE
:10105000E9FF43EBEAFFEF50126E125008E0E6D8CA
:1010600012EBE6FF5DD8F0E10B1DEEE130D052D877
:101070002EE10E501E2411241F240A262CD01050BD
:10108000030A1CE0010A14E0030A07E0ADD8C9D83E
:101090000AEBEEFF0BEBEDFF20D08BD80D6B0BAF07
:1010A00002D00C690D69A0D84ED80DC0EEFF15D046
:1010B00080D80BBF0C6998D846D80FD095D8B1D836
:1010C0000AEBEFFF0AD08BD805E10B1D03E1F368B3
:1010D000F4680BD00A2A000E0B22D950020F70D8E8
:1010E000CDD40AEBF3FF0BEBF4FF7CE9E5CFDAFF9D
:1010F000E7CFD9FF1200D950020F62D80800F5508F
:10110000096E1200005E000E015A00EBE9FF01EBD0
:10111000EAFF1200200EE66E11EBE6FFFFEF08F08B
:101120007BEC0DF043E9F3CF0AF0F4CF0BF00001B4
:10113000F31C120013EBE6FF14EBE6FF15EBE6FFE2
:1011400016EBE6FF12006DD80AC0EEFF0BC0EEFFF3
:101150000CC0EEFF1200D9CFE6FFDACFE6FFE1CFF9
:10116000D9FFE2CFDAFF12001C500D5C116E54D88B
:101170000F501200EECF0AF0EECF0BF0EFCF0CF0D5
:1011800000010D6B1200EECF0AF0EFCF0BF0000163
:1011900012000950E66EE66ACEEC0DF042E9F3501B
:1011A00012000A51136E0B51146E0C51156E0D5135
:1011B00012000AEB0AF00BEB0BF000010C6B1200B3
:1011C000E96E000EDA20EA6EEF2AEECFF6FF000E8F
:1011D000EF22EECFF7FFEF22EECFF8FF120026D876
:1011E00009EBE6FF90EF08F0020E82EF08F00A0E1E
:1011F0001202F3500924D00F126E7BEF08F016D8BC
:101200001AEC05F044E90009120010EBE6FFE66A6B
:10121000E66AE66A9AEF08F011500A26000E0B22E1
:101220001200EE50EFCFEAFFE96E120005EBE6FF89
:1012300006EBE6FF1200D8DFEE501C6EED501D6E7F
:0A1240001D341200D1DFC3EF08F0E7
:06124A00AE0EF5D83F0EC8
:10125000E66EA80ED6D8E66AD30ED3D8400EECD8E8
:10126000A10EEAD8C80EE8D8120EE66EDA0EC9D87A
:101270007F0EE66E810EC5D8A40EDED8A60EDCD891
:10128000800EE66ED50EBDD8140EE66E8D0EB9D862
:10129000220EE66ED90EB5D8300EE66EDB0EB1D852
:1012A000E66A200EAED8AF0E1CEF0AF0F0D8210E81
:1012B000DED8200E0124DBD85F0ED9D8220ED7D875
:1012C00000EBE6FFF3D8070ED2D8E3EC0CF0DBD04E
:1012D0009CD882E941E887D8400EC9D8026A050E39
:1012E000025C0EE2ADD801E00B69050EC3D8140E06
:1012F0000A27000E0B23025096D8D8D8022AEFD71F
:10130000ADD8E3EC0CF042E9E7CFD9FF12007DD86D
:1013100083E9C7D8EF5004E09AD8DADF41E9F9D77A
:10132000B2D073D884E941E801EBE6FF9AD80B0EFE
:10133000045C06E285D801E00B696CD8ADD8F7D71C
:10134000E66A25D841E90128E66E8BD80B0E045CCD
:1013500007E276D801E00B695DD8010F9DD8F6D77A
:10136000E66A15D841E942E9E7CFD9FF12004DD826
:1013700085E997D8EF500AE06AD802EBE6FF03EB65
:10138000E6FFCFDF43E90D0E0326F3D77CD03DD82F
:1013900082E929D8400EE66E2DD037D882E923D8CD
:1013A000800EE66E27D073D801EBE6FF23D02DD850
:1013B00081E942E8E66AE66A79DF42E914D8400E3C
:1013C00056D8016A026A000E015C040E025805E25A
:1013D00045D8012A000E0222F6D7E3EC0CF043E9CF
:1013E000E7CFD9FF1200E66AD7EC0CF041E9780E9E
:1013F00037EF0AF05BD800EBE6FF58D8E3EC0CF0CF
:1014000042D0E66ED0DF42E91200D9CFE6FFE1CF4D
:10141000D9FF1200160E2ED8F40E0A27010E0B2348
:101420000450E8241200F76A0A25F66E0B51F722E1
:101430000800F5CFE6FF1200E66EAFDF41E91200CB
:10144000200E005C00010A6F0B6B800B120029D884
:10145000002A000E0122EFCFE6FF1200E66A56EFE7
:101460000AF002EBE6FF22DF42E9046A1200E66EB0
:1014700056EF0AF00B03F3CF0BF00A03F3CF0AF099
:10148000F4500B27120041E9E7CFD9FF1200BDDF6E
:1014900083E9A9DF2EEF0AF0C6DF79DF41E9042AEC
:1014A000120000EBE9FF01EBEAFF1200ECEC0CF09C
:0414B00041E91200FC
:0C14B400D9CFE6FFE1CFD9FF84E90A0E92
:1014C000005C07E20050E66EE66A220EE66E1C0E35
:1014D00013D00A0E005C0AE3640E005C07E20050C1
:1014E000E66EE66A1D0EE66E1C0E06D00050E66E35
:1014F000E66A190EE66E1C0EB9D801EBE6FF02EBA8
:10150000E6FFB7EC09F044E941E9E7CFD9FF120063
:10151000D9CFE6FFE1CFD9FF81E942E80001086BAE
:10152000096B948694888B968B98C7EC0CF0F28E9E
:1015300025EC09F0640EE66EE66AABD8D7EC09F04C
:10154000260EE66E810EE66ED3EC09F042E9040E3B
:1015500087D8E66AD7EC0CF041E9780EE66EECEC41
:101560000CF041E9400EE66EECEC0CF041E9016A4A
:10157000026A000E015C010E025810E2F00E012416
:10158000F66E170E0220F76E0800F5CFE6FFECECC2
:101590000CF041E9012A000E0222EBD7E3EC0CF03B
:1015A00053D8E80EE66E030EE66E73D8040E58D8D4
:1015B000000EE66E0E0E68D8050E52D8080EE66EC6
:1015C0000E0E62D8060E4CD8100EE66E0E0E5CD8CB
:1015D000070E46D8150EE66E0E0E56D835D81D0EDF
:1015E000E66E0E0EE66E040E5AD8230EE66E0E0E52
:1015F000E66E060E54D828D8040E32D8280EE66EB1
:101600000E0E42D8050E2CD82E0EE66E0E0E3CD8CD
:1016100008C0E6FF09C0E6FF160EE66E1C0E26D8CF
:10162000060E3DD80001E80E085D030E095903E3DC
:10163000086B096B03D0082B000E0923500EE66ED1
:10164000C30EE66E26D8D8D7400EE66E0D0EE66EB7
:10165000030EE66EE66AAEEC0DF044E9D7EF09F052
:10166000E66EE66A56EC09F042E91200E66EE66ABA
:10167000000EE66E000EE66E0FEC0DF047E9000E70
:10168000E66E000EE66E1200E66E87EC09F042E9A7
:101690001200E66AE66AAEEC0DF044E91200E66E6E
:0A16A000E66AB7EC09F044E9120015
:0616AA0045E8D9CFE6FF80
:1016B000DACFE6FFE1CFD9FFE2CFDAFF8FE90C6A9C
:1016C0001200F3DF0C8003D0F0DF01D00C820B6A34
:1016D0000A6A096A086A200EE76ED8900436053651
:1016E00006360736083609360A360B360050085CCF
:1016F0000150095802500A5803500B5809E3005092
:10170000085E0150095A02500A5A03500B5A042A23
:10171000E72EE4D70CB212000CB00AD088EB00F030
:1017200089EB01F08AEB02F08BEB03F00CA008D000
:1017300084EB00F085EB01F086EB02F087EB03F021
:10174000E552E5CFDAFFE7CFD9FF49E9120044E8D7
:10175000D9CFE6FFDACFE6FFE1CFD9FFE2CFDAFF5C
:101760008EE980EB08F081EB09F082EB0AF083EB65
:101770000BF004500802F350006EF450016E045058
:101780000902F3500126000EF420026E04500A02F2
:10179000F3500226000EF420036E04500B02F350A7
:1017A000032605500802F3500126F4500222000ED1
:1017B000032205500902F3500226F450032205507B
:1017C0000A02F350032606500802F3500226F45092
:1017D000032206500902F350032607500802F35073
:1017E0000326E552E5CFDAFFE7CFD9FF48E9000C41
:1017F000FFFFFFFFFFFFFFFFFFFFFFFFFFFFFFFFF9
:10180000FFFFFFFF7F3F1F0F070783838303010154
:1018100001010103038383870F3FFFFFFFFFFFFFEA
:10182000FFFFFFFFFFFFFFFFFFFFFFFFFFFFFFFFC8
:10183000FFFFFFFFFFFFFFFFFFFFFFFFFFFFFFFFB8
:10184000FF3F030080C0C0881C7FFFFFFFFFFCF844
:10185000E0C0083C7FFFFFFFFEFCF0E1870F3F7F09
:10186000FFFFFFFFFFFFFFFFFFFFFFFFFFFFFFFF88
:10187000FFFFFFFFFFFFFFFFFFFFFFFFFFFFFFFF78
:10188000FFFCFCFEFFFFFF7F3E0C01030F1F7FFFED
:10189000FFFFFF7C3801070F3F7FFFFFFFFFFCF0DA
:1018A000FFFFFFFFFFFFFFFFFFFFFFFFFFFFFFFF48
:1018B000FFFFFFFFFFFFFFFFFFFFFFFFFFFFFFFF38
:1018C000FFFFFFFFFFFFF9F0F0E0E0C0C0C0C08005
:1018D0008383C1C0C0C0C0E0E0F0F1FBFFFFFFFFA9
:1018E000FFFFFFFFFFFFFFFFFFFFFFFFFFFFFFFF08
:1018F000060EF66E000EF76E000EF86E0E01090071
:10190000F5503A6F0900F5503B6F03E13A6701D09B
:101910003DD00900F550356F0900F550366F0900CC
:10192000F550376F09000900F550E96E0900F550D0
:10193000EA6E090009000900F550386F0900F550FA
:10194000396F09000900F6CF3CFEF7CF3DFEF8CF16
:101950003EFE35CEF6FF36CEF7FF37CEF8FF0E014E
:10196000385302E1395307E00900F550EE6E3807AD
:10197000F8E23907F9D73CCEF6FF3DCEF7FF3ECE71
:0E198000F8FF0E013A07000E3B5BBFD71200C6
:02198E00800EC9
:10199000C76E280EC66EC56A270EC86E9E961200C8
:1019A0001F0EC514FDE1C750040BFAE112002DD83B
:1019B000F7DF005004E1C580C5A004D0FDD7C58283
:1019C000C5B2FED728D0C584C5B4FED71200C55015
:1019D000400B01E0010E120018D800EBC9FFC6BE93
:1019E00003D0C7B0FED7DCDF16D00FD80050E8B068
:1019F000C58AE8A0C59AC588C5B8FED70CD0D0DF87
:101A0000C586C7A0FED7C9501200D9CFE6FFE1CFE7
:0E1A1000D9FF82E9120041E9E7CFD9FF1200A9
:021A1E00D9CF1E
:101A2000E6FFDACFE6FFE1CFD9FFE2CFDAFF87E9C1
:101A300044E8D9CFE6FFDACFE6FFE552E5500A6E7B
:101A4000E750096E09EBE6FF0AEBE6FF00EBE6FF65
:101A500001EBE6FF02EBE6FFD950030FE66E000E46
:101A6000DA20E66E33EC05F047E9F350076EF450E8
:101A7000086E03EBE9FF04EBEAFFEF6A07EBF3FF05
:101A800008EBF4FF45E9E5CFDAFFE7CFD9FF120015
:101A9000FE0EE3CFE9FFFF0EE3CFEAFFF36AF46A3D
:101AA000EE5203E0F34AF42AFBD71200FF0EE3CF15
:101AB000F8FFE552FF0EE3CFF7FFE552FF0EE3CF4D
:101AC000F6FFE552E66AE66AE66A0900F55209E0C1
:101AD000FD0EE32A05E1FE0EE32A02E1FF0EE32AF2
:101AE000F4D7FD0EE3CF11F0FE0EE3CF12F0FF0EA0
:061AF000E3CF13F0120029
:0A1AF600D9CFE6FFDACFE6FFE1CF1B
:101B0000D9FFE2CFDAFF85E9013415E200EBE9FF06
:101B100001EBEAFFEECFF3FFEDCFF4FFEE2A000E6C
:101B2000EF22F3CFE9FFF4CFEAFF02EBEFFFEF5034
:101B3000F36EF46A0DD0FE0E005C05E102EBE6FFE9
:101B4000F0EC0DF004D002EBE6FF1DEC0EF041E9E5
:0C1B500041E9E5CFDAFFE7CFD9FF120032
:041B5C00D9CFE6FFF8
:101B6000E1CFD9FF85E941E80050011002100310D0
:101B700011E0056A040E055C03E20000052AFAD7AD
:101B8000D9CFE9FFDACFEAFFEE06000EEE5AEE5AA1
:0C1B9000EE5AEAD742E9E7CFD9FF120075
:041B9C00F36AF46A8A
:101BA000FF0EE124E96EFF0EE220EA6EED6607D03B
:101BB0002F0EEF6404D03A0EEF6001D0F32A12002A
:101BC000410EF36E00EE00F00E0E01D81200EA6036
:101BD00002D0EE6AFCD7F350E9601200EE6AFCD73F
:101BE000FF0EE350ACBA04D0AF6AAB8EAC8A949CC3
:0C1BF000ACA2FED7AD6EF36EF46A1200DA
:041BFC001DEE00F0EA
:101C00002DEE00F0F86A78EC0CF01EEC0EF088EC8B
:061C10000AF0FBD71200F0
:0A1C160025640025642500202564E4
:081C20002500202025642500A9
:081C2800303132333435363718
:091C3000383961626364656600E5
:021C3A00120096
:021C3C00120094
:021C3E0036343A
:101C400020782033320053534431333036004F4C28
:101C5000454400444953504C4159004C61726765FA
:101C600000466F6E740048656C6C6F00576F726C45
:031C7000642100EC
:020000040030CA
:0100000055AA
:0100010003FB
:010003007C80
:00000001FF
